:020000040800F2
:100000000050002049070008E5060008ED0600083A
:10001000F5060008FD0600080507000800000000BE
:100020000000000000000000000000000D070008B4
:100030001907000800000000250700083107000824
:100040009107000891070008910700089107000830
:100050009107000891070008910700089107000820
:100060009107000891070008910700089107000810
:100070009107000891070008910700089107000800
:1000800091070008910700089107000891070008F0
:1000900091070008910700089107000891070008E0
:1000A00091070008910700089107000891070008D0
:1000B00091070008910700089107000891070008C0
:1000C00091070008910700089107000891070008B0
:1000D00091070008910700089107000891070008A0
:1000E0009107000891070008910700080000000030
:1000F0000000000000000000000000000000000000
:0C01000000000000000000005FF808F1A3
:10010C0010B5054C237833B9044B13B10448AFF345
:10011C0000800123237010BD0C00002000000000A3
:10012C002420000808B5034B1BB103490348AFF367
:10013C00008008BD000000001000002024200008F2
:10014C0080B500AF00F020FB00F030F800F03AF979
:10015C0000F0BAF800F0E2F800F00AF900F076F8D6
:10016C0020210D4801F028F8642317220B490C4874
:10017C0001F052FD6423172208490A4801F04CFD96
:10018C00642317220549084801F046FD4FF4FA7024
:10019C0000F05CFB00BFE3E7000801403C200008D6
:1001AC0058000020A0000020E800002080B594B08A
:1001BC0000AF07F1280328220021184601F000FFA8
:1001CC0007F1140300221A605A609A60DA601A610F
:1001DC003B1D00221A605A609A60DA600223BB62EF
:1001EC000123BB631023FB6300237B6407F128030B
:1001FC00184600F0FBFF0346002B01D000F038F945
:10020C000F237B610023BB610023FB6100233B6256
:10021C0000237B6207F114030021184601F068FAF1
:10022C000346002B01D000F023F902237B6000234E
:10023C00FB603B1D184601F0E9FB0346002B01D087
:10024C0000F016F900BF5037BD4680BD80B584B0B4
:10025C0000AF3B1D00221A605A609A60184B194A75
:10026C001A60174B00229A60154B00221A73144B1C
:10027C0000221A75124B4FF46022DA61104B0022E7
:10028C005A600F4B01221A610D4800F003FB034624
:10029C00002B01D000F0ECF809237B600123BB603C
:1002AC000023FB603B1D1946054800F0CBFB0346C1
:1002BC00002B01D000F0DCF800BF1037BD4680BD2C
:1002CC00280000200024014080B500AF114B124AD9
:1002DC001A60104B4FF416525A600E4B00229A6063
:1002EC000C4B0022DA600B4B00221A61094B0C22DA
:1002FC005A61084B00229A61064B0022DA610548CC
:10030C0001F03AFC0346002B01D000F0B1F800BF1D
:10031C0080BD00BF580000200038014080B500AF00
:10032C00114B124A1A60104B4FF416525A600E4B76
:10033C0000229A600C4B0022DA600B4B00221A61EF
:10034C00094B0C225A61084B00229A61064B002281
:10035C00DA61054801F010FC0346002B01D000F0D7
:10036C0087F800BF80BD00BFA00000200044004003
:10037C0080B500AF114B124A1A60104B4FF4165255
:10038C005A600E4B00229A600C4B0022DA600B4B29
:10039C0000221A61094B0C225A61084B00229A6107
:1003AC00064B0022DA61054801F0E6FB0346002B00
:1003BC0001D000F05DF800BF80BD00BFE800002058
:1003CC000048004080B588B000AF07F11003002250
:1003DC001A605A609A60DA60234B9B69224A43F098
:1003EC0010039361204B9B6903F01003FB60FB68C7
:1003FC001D4B9B691C4A43F0200393611A4B9B696C
:10040C0003F02003BB60BB68174B9B69164A43F093
:10041C0004039361144B9B6903F004037B607B68BA
:10042C00114B9B69104A43F0080393610E4B9B6977
:10043C0003F008033B603B68002220210B4800F0CE
:10044C00A3FE20233B6101237B610023BB610323BB
:10045C00FB6107F110031946044800F011FD00BFC1
:10046C002037BD4680BD00BF00100240000801408F
:10047C0080B400AF72B600BF00BFFDE780B485B09A
:10048C0000AF154B9B69144A43F001039361124B67
:10049C009B6903F00103BB60BB680F4BDB690E4A21
:1004AC0043F08053D3610C4BDB6903F080537B60CA
:1004BC007B680A4B5B68FB60FB6823F0E063FB60C6
:1004CC00FB6843F00073FB60044AFB68536000BF99
:1004DC001437BD4680BC704700100240000001403C
:1004EC0080B588B000AF786007F1100300221A6065
:1004FC005A609A60DA607B681B68144A934221D177
:10050C00134B9B69124A43F400739361104B9B6924
:10051C0003F40073FB60FB680D4B9B690C4A43F0C2
:10052C00080393610A4B9B6903F00803BB60BB682B
:10053C0002233B6103237B6107F110031946054835
:10054C0000F09EFC00BF2037BD4680BD002401405A
:10055C0000100240000C014080B58CB000AF7860F8
:10056C0007F1200300221A605A609A60DA607B68F7
:10057C001B68534A934232D1524B9B69514A43F404
:10058C00804393614F4B9B6903F48043FB61FB6990
:10059C004C4B9B694B4A43F004039361494B9B6959
:1005AC0003F00403BB61BB694FF400733B6202238D
:1005BC007B620323FB6207F120031946424800F0DB
:1005CC005FFC4FF480633B6200237B620023BB62C1
:1005DC0007F1200319463C4800F052FC6CE07B68A4
:1005EC001B683A4A934230D1364BDB69354A43F4A7
:1005FC000033D361334BDB6903F400337B617B69DC
:10060C00304B9B692F4A43F0040393612D4B9B693C
:10061C0003F004033B613B6904233B6202237B62CE
:10062C000323FB6207F120031946274800F028FC3E
:10063C0008233B6200237B620023BB6207F120038B
:10064C001946214800F01CFC36E07B681B68204AE8
:10065C00934231D11B4BDB691A4A43F48023D3619B
:10066C00184BDB6903F48023FB60FB68154B9B691B
:10067C00144A43F008039361124B9B6903F008037F
:10068C00BB60BB684FF480633B6202237B62032335
:10069C00FB6207F1200319460E4800F0F1FB4FF402
:1006AC0000633B6200237B620023BB6207F12003E3
:1006BC001946084800F0E4FB00BF3037BD4680BD4A
:1006CC000038014000100240000801400044004086
:1006DC0000480040000C014080B400AF00BFFDE7B3
:1006EC0080B400AF00BFFDE780B400AF00BFFDE7F2
:1006FC0080B400AF00BFFDE780B400AF00BFFDE7E2
:10070C0080B400AF00BFBD4680BC704780B400AF62
:10071C0000BFBD4680BC704780B400AF00BFBD4673
:10072C0080BC704780B500AF00F074F800BF80BD8E
:10073C0080B400AF00BFBD4680BC7047FFF7F8FF28
:10074C000B480C490C4A002302E0D458C450043323
:10075C00C4188C42F9D3094A094C002301E01360F8
:10076C000432A242FBD301F033FCFFF7E9FC7047E3
:10077C00000000200C000020842000080C00002049
:10078C0034010020FEE7000080B500AF084B1B6869
:10079C00074A43F010031360032000F03DFB0F20C9
:1007AC0000F008F8FFF76AFE0023184680BD00BF72
:1007BC000020024080B582B000AF7860124B1A68FE
:1007CC00124B1B7819464FF47A73B3FBF1F3B2FB5F
:1007DC00F3F3184600F047FB0346002B01D001232E
:1007EC000EE07B680F2B0AD8002279684FF0FF309F
:1007FC0000F01DFB064A7B681360002300E0012318
:10080C0018460837BD4680BD0000002008000020B7
:10081C000400002080B400AF054B1B781A46054B32
:10082C001B681344034A136000BFBD4680BC70476D
:10083C00080000203001002080B400AF024B1B6880
:10084C001846BD4680BC70473001002080B584B08E
:10085C0000AF7860FFF7F0FFB8607B68FB60FB6867
:10086C00B3F1FF3F05D00A4B1B781A46FB681344C3
:10087C00FB6000BFFFF7E0FF0246BB68D31AFA68C3
:10088C009A42F7D800BF00BF1037BD4680BD00BFED
:10089C000800002080B586B000AF78600023FB759F
:1008AC0000233B610023BB600023FB607B68002BB3
:1008BC0001D10123BEE07B689B68002B7B689B6A9F
:1008CC00002B09D17B680022DA627B68002283F856
:1008DC0024207868FFF704FE786800F0ABF9034633
:1008EC00FB757B689B6A03F01003002B40F099802A
:1008FC00FB7D002B40F095807B689B6A23F488532A
:10090C0023F0020343F002027B689A627B685A6808
:10091C007B68DB691A437B681B7B5B001343BA68FB
:10092C001343BB607B689B68B3F5807F03D07B6807
:10093C009B68012B02D14FF4807300E000233A69CD
:10094C0013433B617B681B7D012B19D17B681B7B9F
:10095C00002B09D17B689B69013B5A033B6913430C
:10096C0043F400633B610BE07B689B6A43F020021D
:10097C007B689A627B68DB6A43F001027B68DA620F
:10098C007B681B685B6823F469417B681B683A6968
:10099C000A435A607B681B689A68284B13407A6834
:1009AC001268B9680B4393607B689B68B3F5807FD2
:1009BC0003D07B689B68012B04D17B681B69013BCE
:1009CC001B05FB607B681B68DB6A23F470017B688A
:1009DC001B68FA680A43DA627B681B689A68184BD2
:1009EC001340BA689A420BD17B680022DA627B68AA
:1009FC009B6A23F0030343F001027B689A6218E0C0
:100A0C007B689B6A23F0120343F010027B689A62A6
:100A1C007B68DB6A43F001027B68DA620123FB75B9
:100A2C0007E07B689B6A43F010027B689A620123A3
:100A3C00FB75FB7D18461837BD4680BDFDF7E1FF01
:100A4C00FE0E1FFF80B485B000AF786039600023C4
:100A5C00FB730023BB607B6893F82430012B01D11E
:100A6C000223DCE07B68012283F824203B685B686E
:100A7C00062B1CD87B681B68596B3B685A6813465D
:100A8C009B001344053B1F2202FA03F3DB4319407E
:100A9C003B6818683B685A6813469B001344053B37
:100AAC0000FA03F27B681B680A435A633CE03B681C
:100ABC005B680C2B1CD87B681B68196B3B685A68ED
:100ACC0013469B001344233B1F2202FA03F3DB4320
:100ADC0019403B6818683B685A6813469B001344DE
:100AEC00233B00FA03F27B681B680A431A631BE082
:100AFC007B681B68D96A3B685A6813469B00134491
:100B0C00413B1F2202FA03F3DB4319403B68186890
:100B1C003B685A6813469B001344413B00FA03F2AE
:100B2C007B681B680A43DA623B681B68092B1CD97B
:100B3C007B681B68D9683B681A6813465B001344D2
:100B4C001E3B072202FA03F3DB4319403B6898680B
:100B5C003B681A6813465B0013441E3B00FA03F211
:100B6C007B681B680A43DA6019E07B681B681969AB
:100B7C003B681A6813465B001344072202FA03F31E
:100B8C00DB4319403B6898683B681A6813465B0066
:100B9C00134400FA03F27B681B680A431A613B6832
:100BAC001B68102B03D03B681B68112B32D17B6860
:100BBC001B681D4A934225D17B681B689B6803F414
:100BCC000003002B26D17B681B689A687B681B6826
:100BDC0042F400029A603B681B68102B1AD1134B2D
:100BEC001B68134AA2FB03239A0C13469B00134465
:100BFC005B00BB6002E0BB68013BBB60BB68002BC9
:100C0C00F9D107E07B689B6A43F020027B689A620B
:100C1C000123FB737B68002283F82420FB7B18469E
:100C2C001437BD4680BC70470024014000000020F2
:100C3C0083DE1B4380B584B000AF78600023FB607B
:100C4C007B681B689B6803F00103012B2ED17B682A
:100C5C001B689A687B681B6822F001029A60FFF798
:100C6C00EBFDF8601BE0FFF7E7FD0246FB68D31ACB
:100C7C00022B14D97B681B689B6803F00103012BC2
:100C8C000DD17B689B6A43F010027B689A627B688B
:100C9C00DB6A43F001027B68DA62012307E07B68C0
:100CAC001B689B6803F00103012BDCD00023184662
:100CBC001037BD4680BD000080B485B000AF7860B1
:100CCC007B6803F00703FB600C4BDB68BB60BA6806
:100CDC004FF6FF031340BB60FB681A02BB6813435B
:100CEC0043F0BF6343F40033BB60044ABB68D3607A
:100CFC0000BF1437BD4680BC704700BF00ED00E05C
:100D0C0080B400AF044BDB681B0A03F007031846E2
:100D1C00BD4680BC704700BF00ED00E080B483B0DE
:100D2C0000AF03463960FB7197F90730002B0ADBE3
:100D3C003B68DAB20C4997F907301201D2B20B4476
:100D4C0083F800230AE03B68DAB20849FB7903F028
:100D5C000F03043B1201D2B20B441A7600BF0C37BE
:100D6C00BD4680BC704700BF00E100E000ED00E034
:100D7C0080B489B000AFF860B9607A60FB6803F0AA
:100D8C000703FB61FB69C3F10703042B28BF042392
:100D9C00BB61FB690433062B02D9FB69033B00E002
:100DAC0000237B614FF0FF32BB6902FA03F3DA4395
:100DBC00BB681A407B699A404FF0FF317B6901FA9E
:100DCC0003F3D9437B680B40134318462437BD46C5
:100DDC0080BC704780B582B000AF78607B68013B07
:100DEC00B3F1807F01D301230FE00A4A7B68013BFA
:100DFC0053600F214FF0FF30FFF790FF054B00229F
:100E0C009A60044B07221A60002318460837BD4627
:100E1C0080BD00BF10E000E080B582B000AF78600C
:100E2C007868FFF749FF00BF0837BD4680BD80B525
:100E3C0086B000AF0346B9607A60FB7300237B6118
:100E4C00FFF75EFF78617A68B9687869FFF790FF01
:100E5C00024697F90F3011461846FFF75FFF00BFA7
:100E6C001837BD4680BD80B582B000AF7860786819
:100E7C00FFF7B0FF034618460837BD4680BD00009B
:100E8C0080B48BB000AF7860396000237B620023A4
:100E9C003B6269E101227B6A02FA03F3FB613B6866
:100EAC001B68FA691340BB61BA69FB699A4240F04E
:100EBC0058813B685B689A4A93425ED0984A934249
:100ECC0075D8984A934258D0964A93426FD8964A0E
:100EDC00934252D0944A934269D8944A93424CD04C
:100EEC00924A934263D8924A934246D0904A934294
:100EFC005DD8122B2AD8122B59D801A252F823F004
:100F0C00870F0008610F0008730F0008B50F000869
:100F1C00BB0F0008BB0F0008BB0F0008BB0F00087D
:100F2C00BB0F0008BB0F0008BB0F0008BB0F00086D
:100F3C00BB0F0008BB0F0008BB0F0008BB0F00085D
:100F4C00BB0F0008690F00087D0F0008794A934217
:100F5C0013D02CE03B68DB683B6229E03B68DB6824
:100F6C0004333B6224E03B68DB6808333B621FE0E0
:100F7C003B68DB680C333B621AE03B689B68002BD8
:100F8C0002D104233B6213E03B689B68012B05D123
:100F9C0008233B627B68FA691A6109E008233B620B
:100FAC007B68FA695A6103E000233B6200E000BFF2
:100FBC00BB69FF2B01D87B6801E07B6804337B6144
:100FCC00BB69FF2B02D87B6A9B0002E07B6A083B63
:100FDC009B003B617B691A680F213B6901FA03F3A3
:100FEC00DB431A40396A3B6901FA03F31A437B6904
:100FFC001A603B685B6803F08053002B00F0B180F3
:10100C004D4B9B694C4A43F0010393614A4B9B69DE
:10101C0003F00103BB60BB68484A7B6A9B08023340
:10102C0052F82330FB607B6A03F003039B000F2212
:10103C0002FA03F3DB43FA681340FB607B68404A17
:10104C00934213D07B683F4A93420DD07B683E4A53
:10105C00934207D07B683D4A934201D1032306E0BB
:10106C00042304E0022302E0012300E000237A6A57
:10107C0002F0030292009340FA681343FB602F497D
:10108C007B6A9B080233FA6841F823203B685B6853
:10109C0003F48013002B06D02D4B9A682C49BB69A6
:1010AC0013438B6006E02A4B9A68BB69DB432849E3
:1010BC0013408B603B685B6803F40013002B06D075
:1010CC00234BDA682249BB691343CB6006E0204B03
:1010DC00DA68BB69DB431E491340CB603B685B6835
:1010EC0003F40033002B06D0194B5A681849BB691E
:1010FC0013434B6006E0164B5A68BB69DB4314493B
:10110C0013404B603B685B6803F48033002B21D0A9
:10111C000F4B1A680E49BB6913430B6021E000BFEB
:10112C0000003210000031100000221000002110CD
:10113C0000001210000011100010024000000140CD
:10114C0000080140000C0140001001400014014057
:10115C00000401400B4B1A68BB69DB43094913407F
:10116C000B607B6A01337B623B681A687B6A22FAEC
:10117C0003F3002B7FF48EAE00BF00BF2C37BD46AF
:10118C0080BC70470004014080B483B000AF78602D
:10119C000B467B8013467B707B78002B03D07A88C0
:1011AC007B681A6103E07B881A047B681A6100BFB4
:1011BC000C37BD4680BC704780B485B000AF7860FA
:1011CC000B467B807B68DB68FB607A88FB6813408E
:1011DC001A04FB68D9437B880B401A437B681A615D
:1011EC0000BF1437BD4680BC7047000080B586B088
:1011FC0000AF78607B68002B01D1012372E27B6821
:10120C001B6803F00103002B00F08780924B5B6896
:10121C0003F00C03042B0CD08F4B5B6803F00C0316
:10122C00082B12D18C4B5B6803F48033B3F5803FF1
:10123C000BD1894B1B6803F40033002B6CD07B68FB
:10124C005B68002B68D101234CE27B685B68B3F5CB
:10125C00803F06D1804B1B687F4A43F48033136078
:10126C002EE07B685B68002B0CD17B4B1B687A4AA9
:10127C0023F480331360784B1B68774A23F4802364
:10128C0013601DE07B685B68B3F5A02F0CD1724B2B
:10129C001B68714A43F4802313606F4B1B686E4AC2
:1012AC0043F4803313600BE06B4B1B686A4A23F4E6
:1012BC0080331360684B1B68674A23F480231360E8
:1012CC007B685B68002B13D0FFF7B6FA386108E037
:1012DC00FFF7B2FA02463B69D31A642B01D90323F8
:1012EC0000E25D4B1B6803F40033002BF0D014E0DC
:1012FC00FFF7A2FA386108E0FFF79EFA02463B6955
:10130C00D31A642B01D90323ECE1534B1B6803F470
:10131C000033002BF0D100E000BF7B681B6803F0AA
:10132C000203002B63D04C4B5B6803F00C03002BC7
:10133C000BD0494B5B6803F00C03082B1CD1464BBC
:10134C005B6803F48033002B16D1434B1B6803F00E
:10135C000203002B05D07B681B69012B01D00123F4
:10136C00C0E13D4B1B6823F0F8027B685B69DB0036
:10137C00394913430B603AE07B681B69002B20D082
:10138C00364B01221A60FFF757FA386108E0FFF775
:10139C0053FA02463B69D31A022B01D90323A1E16C
:1013AC002D4B1B6803F00203002BF0D02A4B1B685B
:1013BC0023F0F8027B685B69DB00274913430B6061
:1013CC0015E0264B00221A60FFF736FA386108E068
:1013DC00FFF732FA02463B69D31A022B01D90323D9
:1013EC0080E11D4B1B6803F00203002BF0D17B68DE
:1013FC001B6803F00803002B3AD07B689B69002B19
:10140C0019D0174B01221A60FFF716FA386108E061
:10141C00FFF712FA02463B69D31A022B01D90323B8
:10142C0060E10D4B5B6A03F00203002BF0D001204E
:10143C0000F0CEFA1CE00A4B00221A60FFF7FCF910
:10144C0038610FE0FFF7F8F902463B69D31A022B1B
:10145C0008D9032346E100BF0010024000004242BD
:10146C0080044242924B5B6A03F00203002BE9D1E9
:10147C007B681B6803F00403002B00F0A68000239C
:10148C00FB758B4BDB6903F08053002B0DD1884B24
:10149C00DB69874A43F08053D361854BDB6903F0EA
:1014AC008053BB60BB680123FB75824B1B6803F444
:1014BC008073002B18D17F4B1B687E4A43F48073DA
:1014CC001360FFF7B9F9386108E0FFF7B5F9024688
:1014DC003B69D31A642B01D9032303E1754B1B68B9
:1014EC0003F48073002BF0D07B68DB68012B06D1F2
:1014FC006F4B1B6A6E4A43F0010313622DE07B684D
:10150C00DB68002B0CD16A4B1B6A694A23F0010380
:10151C001362674B1B6A664A23F0040313621CE0D8
:10152C007B68DB68052B0CD1614B1B6A604A43F06E
:10153C00040313625E4B1B6A5D4A43F001031362A2
:10154C000BE05B4B1B6A5A4A23F001031362584BA6
:10155C001B6A574A23F0040313627B68DB68002B79
:10156C0015D0FFF769F938610AE0FFF765F9024613
:10157C003B69D31A41F28832934201D90323B1E07B
:10158C004B4B1B6A03F00203002BEED014E0FFF769
:10159C0053F938610AE0FFF74FF902463B69D31A59
:1015AC0041F28832934201D903239BE0404B1B6AE2
:1015BC0003F00203002BEED1FB7D012B05D13C4B3C
:1015CC00DB693B4A23F08053D3617B68DB69002BDA
:1015DC0000F08780364B5B6803F00C03082B61D05E
:1015EC007B68DB69022B46D1334B00221A60FFF774
:1015FC0023F9386108E0FFF71FF902463B69D31A5B
:10160C00022B01D903236DE0294B1B6803F00073F7
:10161C00002BF0D17B681B6AB3F5803F08D1244BBB
:10162C005B6823F400327B689B68214913434B6051
:10163C001F4B5B6823F474127B68196A7B685B6AC6
:10164C000B431B4913434B601B4B01221A60FFF7E2
:10165C00F3F8386108E0FFF7EFF802463B69D31A5C
:10166C00022B01D903233DE0114B1B6803F00073DF
:10167C00002BF0D035E0104B00221A60FFF7DCF89D
:10168C00386108E0FFF7D8F802463B69D31A022B01
:10169C0001D9032326E0064B1B6803F00073002BD3
:1016AC00F0D11EE07B68DB69012B07D1012319E027
:1016BC000010024000700040600042420B4B5B681F
:1016CC00FB60FB6803F480327B681B6A9A4206D18C
:1016DC00FB6803F470127B685B6A9A4201D00123A9
:1016EC0000E0002318461837BD4680BD00100240AC
:1016FC0080B584B000AF786039607B68002B01D175
:10170C000123D0E06A4B1B6803F007033A689A4246
:10171C0010D9674B1B6823F0070265493B681343DC
:10172C000B60634B1B6803F007033A689A4201D0C5
:10173C000123B8E07B681B6803F00203002B20D068
:10174C007B681B6803F00403002B05D0594B5B68C6
:10175C00584A43F4E06353607B681B6803F008034A
:10176C00002B05D0534B5B68524A43F460535360D3
:10177C00504B5B6823F0F0027B689B684D49134328
:10178C004B607B681B6803F00103002B40D07B6827
:10179C005B68012B07D1474B1B6803F40033002B0C
:1017AC0015D101237FE07B685B68022B07D1414B8D
:1017BC001B6803F00073002B09D1012373E03D4B30
:1017CC001B6803F00203002B01D101236BE0394BA2
:1017DC005B6823F003027B685B68364913434B60FC
:1017EC00FFF72AF8F8600AE0FFF726F80246FB68D4
:1017FC00D31A41F28832934201D9032353E02D4B83
:10180C005B6803F00C027B685B689B009A42EBD12F
:10181C00274B1B6803F007033A689A4210D2244BFB
:10182C001B6823F0070222493B6813430B60204BD3
:10183C001B6803F007033A689A4201D0012332E097
:10184C007B681B6803F00403002B08D0194B5B6802
:10185C0023F4E0627B68DB68164913434B607B68BA
:10186C001B6803F00803002B09D0124B5B6823F4B0
:10187C0060527B681B69DB000E4913434B6000F020
:10188C0021F802460B4B5B681B0903F00F030A4956
:10189C00CB5C22FA03F3094A1360094B1B68184608
:1018AC00FEF788FF002318461037BD4680BD00BFE9
:1018BC0000200240001002405020000800000020D0
:1018CC000400002080B487B000AF0023FB6000232D
:1018DC00BB6000237B6100237B6000233B611E4BBC
:1018EC005B68FB60FB6803F00C03042B02D0082B35
:1018FC0003D027E0194B3B6127E0FB689B0C03F0FE
:10190C000F03174AD35C7B60FB6803F48033002B16
:10191C0010D0114B5B685B0C03F00103114AD35CD4
:10192C00BB607B680D4A03FB02F2BB68B2FBF3F3AE
:10193C007B6104E07B680C4A02FB03F37B617B69EF
:10194C003B6102E0054B3B6100BF3B6918461C370D
:10195C00BD4680BC704700BF0010024000127A00E8
:10196C00682000087820000800093D0080B400AF12
:10197C00024B1B681846BD4680BC70470000002017
:10198C0080B500AFFFF7F2FF0246054B5B681B0A00
:10199C0003F007030349CB5C22FA03F3184680BD1E
:1019AC00001002406020000880B500AFFFF7DEFF9A
:1019BC000246054B5B68DB0A03F007030349CB5C6B
:1019CC0022FA03F3184680BD001002406020000884
:1019DC0080B485B000AF78600A4B1B680A4AA2FB42
:1019EC0003235B0A7A6802FB03F3FB6000BFFB680E
:1019FC005A1EFA60002BF9D100BF00BF1437BD4648
:101A0C0080BC704700000020D34D621080B586B0BA
:101A1C0000AF786000233B610023FB607B681B6890
:101A2C0003F00103002B7DD00023FB754F4BDB69CA
:101A3C0003F08053002B0DD14C4BDB694B4A43F028
:101A4C008053D361494BDB6903F08053BB60BB68A7
:101A5C000123FB75464B1B6803F48073002B18D1D4
:101A6C00434B1B68424A43F480731360FEF7E4FE59
:101A7C00386108E0FEF7E0FE02463B69D31A642B9E
:101A8C0001D903236DE03A4B1B6803F48073002BE0
:101A9C00F0D0364B1B6A03F44073FB60FB68002BE1
:101AAC002ED07B685B6803F44073FA689A4227D0A7
:101ABC002E4B1B6A23F44073FB602E4B01221A60E1
:101ACC002C4B00221A60294AFB681362FB6803F056
:101ADC000103002B14D0FEF7AFFE38610AE0FEF7CD
:101AEC00ABFE02463B69D31A41F28832934201D9CC
:101AFC00032336E01D4B1B6A03F00203002BEED0D0
:101B0C001A4B1B6A23F440727B685B6817491343BA
:101B1C000B62FB7D012B05D1144BDB69134A23F0BF
:101B2C008053D3617B681B6803F00203002B08D041
:101B3C000E4B5B6823F440427B689B680B49134354
:101B4C004B607B681B6803F01003002B08D0074B1D
:101B5C005B6823F480027B68DB68044913434B60A9
:101B6C00002318461837BD4680BD00BF0010024048
:101B7C00007000404004424280B582B000AF7860F3
:101B8C007B68002B01D1012342E07B6893F8413044
:101B9C00DBB2002B06D17B68002283F840207868EA
:101BAC00FEF7DAFC7B68242283F841207B681B68F3
:101BBC00DA687B681B6822F40052DA60786800F0FF
:101BCC0071F97B681B681A697B681B6822F4904268
:101BDC001A617B681B685A697B681B6822F02A02B1
:101BEC005A617B681B68DA687B681B6842F4005298
:101BFC00DA607B6800225A647B68202283F84120DB
:101C0C007B68202283F842207B6800225A630023E1
:101C1C0018460837BD4680BD80B58AB002AFF86063
:101C2C00B9603B601346FB8000237B61FB6893F833
:101C3C004130DBB2202B75D1BB68002B02D0FB8866
:101C4C00002B01D101236EE0FB6800225A64FB6873
:101C5C00212283F84120FEF7EFFD7861FB68FA88BA
:101C6C009A84FB68FA88DA84FB689B68B3F5805F1A
:101C7C0008D1FB681B69002B04D10023FB61BB68F6
:101C8C00BB6103E0BB68FB610023BB612EE03B68DA
:101C9C0000937B6900228021F86800F048F8034625
:101CAC00002B05D0FB68202283F8412003233AE067
:101CBC00FB69002B0BD1BB691B881A46FB681B68A0
:101CCC00C2F308025A60BB690233BB6107E0FB69CF
:101CDC001A78FB681B685A60FB690133FB61FB686F
:101CEC00DB8C9BB2013B9AB2FB68DA84FB68DB8C21
:101CFC009BB2002BCBD13B6800937B690022402127
:101D0C00F86800F014F80346002B05D0FB6820227D
:101D1C0083F84120032306E0FB68202283F841204E
:101D2C00002300E0022318462037BD4680BD80B555
:101D3C0086B000AFF860B9603B601346FB713BE0C6
:101D4C003B6AB3F1FF3F37D0FEF776FD02463B68A6
:101D5C00D31A3A6A9A4202D33B6A002B01D103236D
:101D6C003AE0FB681B68DB6803F00403002B23D00C
:101D7C00BB68802B20D0BB68402B1DD0FB681B6838
:101D8C001B6803F00803082B16D100237B61FB684A
:101D9C001B681B687B61FB681B685B687B617B69EC
:101DAC00F86800F01DF8FB6808225A64FB680022F2
:101DBC0083F8402001230FE0FB681B681A68BB689E
:101DCC001340BA689A420CBF01230023DBB21A46B7
:101DDC00FB799A42B4D0002318461837BD4680BD13
:101DEC0080B495B000AF78607B681B680C337B6364
:101DFC007B6B53E8003F3B633B6B23F49073FB64BA
:101E0C007B681B680C33FA6C3A64FB63F96B3A6CB5
:101E1C0041E80023BB63BB6B002BE5D17B681B68DF
:101E2C0014333B623B6A53E8003FFB61FB6923F0D0
:101E3C000103BB647B681B681433BA6CFA62BB6227
:101E4C00B96AFA6A41E800237B627B6A002BE5D110
:101E5C007B681B6B012B19D17B681B680C33FB60F7
:101E6C00FB6853E8003FBB60BB6823F010037B6446
:101E7C007B681B680C337A6CBA617B617969BA69CF
:101E8C0041E800233B613B69002BE5D17B682022B4
:101E9C0083F842207B6800221A6300BF5437BD468A
:101EAC0080BC704780B584B000AF78607B681B68DD
:101EBC001B6923F440517B68DA687B681B680A4312
:101ECC001A617B689A687B681B691A437B685B693B
:101EDC001343BB607B681B68DB6823F4B05323F0AF
:101EEC000C037A681268B9680B43D3607B681B6873
:101EFC005B6923F440717B689A697B681B680A43B1
:101F0C005A617B681B682C4A934203D1FFF74CFD46
:101F1C00F86002E0FFF734FDF860FA6813469B00A6
:101F2C0013449A001A447B685B689B00B2FBF3F382
:101F3C00224AA2FB03235B091901FA6813469B0092
:101F4C0013449A001A447B685B689B00B2FBF3F263
:101F5C001A4BA3FB02035B09642000FB03F3D31AA7
:101F6C001B013233154AA2FB03235B0903F0F00378
:101F7C001944FA6813469B0013449A001A447B6870
:101F8C005B689B00B2FBF3F20C4BA3FB02035B09F7
:101F9C00642000FB03F3D31A1B013233074AA2FB64
:101FAC0003235B0903F00F027B681B680A449A60E9
:101FBC0000BF1037BD4680BD003801401F85EB5176
:101FCC0003460244934200D1704703F8011BF9E722
:101FDC0070B500260C4D0D4C641BA410A64209D103
:101FEC0000F01AF800260A4D0A4C641BA410A642F5
:101FFC0005D170BD55F8043B98470136EEE755F80E
:10200C00043B98470136F2E77C2000087C2000084E
:10201C007C20000880200008F8B500BFF8BC08BC84
:10202C009E467047F8B500BFF8BC08BC9E4670478A
:10203C0068656C6C6F2066726F6D2070726F746562
:10204C007573000000000000000000000102030492
:10205C00060708090000000001020304020304053E
:10206C00060708090A0B0C0D0E0F101001020000D8
:04207C003101000826
:042080000D01000846
:0C20840000127A001000000001000000B3
:04000005080007499F
:00000001FF
